{"abi":[{"type":"constructor","inputs":[{"name":"_platformFeePercentage","type":"uint256","internalType":"uint256"}],"stateMutability":"nonpayable"},{"type":"function","name":"allCampaigns","inputs":[{"name":"","type":"uint256","internalType":"uint256"}],"outputs":[{"name":"","type":"address","internalType":"address"}],"stateMutability":"view"},{"type":"function","name":"createCampaign","inputs":[{"name":"_goal","type":"uint256","internalType":"uint256"},{"name":"_deadline","type":"uint256","internalType":"uint256"},{"name":"_title","type":"string","internalType":"string"},{"name":"_description","type":"string","internalType":"string"},{"name":"_imageURL","type":"string","internalType":"string"},{"name":"_isFlexibleFunding","type":"bool","internalType":"bool"}],"outputs":[{"name":"campaignAddress","type":"address","internalType":"address"}],"stateMutability":"nonpayable"},{"type":"function","name":"getTotalCampaigns","inputs":[],"outputs":[{"name":"","type":"uint256","internalType":"uint256"}],"stateMutability":"view"},{"type":"function","name":"getUserCampaigns","inputs":[{"name":"_user","type":"address","internalType":"address"}],"outputs":[{"name":"","type":"address[]","internalType":"address[]"}],"stateMutability":"view"},{"type":"function","name":"owner","inputs":[],"outputs":[{"name":"","type":"address","internalType":"address"}],"stateMutability":"view"},{"type":"function","name":"platformFeePercentage","inputs":[],"outputs":[{"name":"","type":"uint256","internalType":"uint256"}],"stateMutability":"view"},{"type":"function","name":"recordSuccessfulCampaign","inputs":[{"name":"_amountRaised","type":"uint256","internalType":"uint256"},{"name":"_contributorCount","type":"uint256","internalType":"uint256"}],"outputs":[],"stateMutability":"nonpayable"},{"type":"function","name":"renounceOwnership","inputs":[],"outputs":[],"stateMutability":"nonpayable"},{"type":"function","name":"setPlatformFee","inputs":[{"name":"_newFee","type":"uint256","internalType":"uint256"}],"outputs":[],"stateMutability":"nonpayable"},{"type":"function","name":"stats","inputs":[],"outputs":[{"name":"totalCampaigns","type":"uint256","internalType":"uint256"},{"name":"totalRaised","type":"uint256","internalType":"uint256"},{"name":"totalSuccessful","type":"uint256","internalType":"uint256"},{"name":"totalContributors","type":"uint256","internalType":"uint256"}],"stateMutability":"view"},{"type":"function","name":"transferOwnership","inputs":[{"name":"newOwner","type":"address","internalType":"address"}],"outputs":[],"stateMutability":"nonpayable"},{"type":"function","name":"userCampaigns","inputs":[{"name":"","type":"address","internalType":"address"},{"name":"","type":"uint256","internalType":"uint256"}],"outputs":[{"name":"","type":"address","internalType":"address"}],"stateMutability":"view"},{"type":"function","name":"withdrawFees","inputs":[],"outputs":[],"stateMutability":"nonpayable"},{"type":"event","name":"CampaignCreated","inputs":[{"name":"creator","type":"address","indexed":true,"internalType":"address"},{"name":"campaignAddress","type":"address","indexed":false,"internalType":"address"},{"name":"goal","type":"uint256","indexed":false,"internalType":"uint256"},{"name":"deadline","type":"uint256","indexed":false,"internalType":"uint256"},{"name":"title","type":"string","indexed":false,"internalType":"string"}],"anonymous":false},{"type":"event","name":"OwnershipTransferred","inputs":[{"name":"previousOwner","type":"address","indexed":true,"internalType":"address"},{"name":"newOwner","type":"address","indexed":true,"internalType":"address"}],"anonymous":false},{"type":"event","name":"PlatformFeeChanged","inputs":[{"name":"newFee","type":"uint256","indexed":false,"internalType":"uint256"}],"anonymous":false},{"type":"error","name":"OwnableInvalidOwner","inputs":[{"name":"owner","type":"address","internalType":"address"}]},{"type":"error","name":"OwnableUnauthorizedAccount","inputs":[{"name":"account","type":"address","internalType":"address"}]}],"bytecode":{"object":"0x608060405234801561000f575f80fd5b5060405161353738038061353783398101604081905261002e91610106565b338061005457604051631e4fbdf760e01b81525f60048201526024015b60405180910390fd5b61005d816100b7565b50600a8111156100af5760405162461bcd60e51b815260206004820152601560248201527f4665652063616e6e6f7420657863656564203130250000000000000000000000604482015260640161004b565b60015561011d565b5f80546001600160a01b038381166001600160a01b0319831681178455604051919092169283917f8be0079c531659141344cd1fd0a4f28419497f9722a3daafe3b4186f6b6457e09190a35050565b5f60208284031215610116575f80fd5b5051919050565b61340d8061012a5f395ff3fe608060405234801562000010575f80fd5b5060043610620000dc575f3560e01c80638f66341f1162000093578063adf7df9c116200006b578063adf7df9c14620001b9578063cdd78cfc14620001d0578063d80528ae14620001da578063f2fde38b1462000212575f80fd5b80638f66341f1462000165578063a1e5084c146200017c578063a509f4d114620001a2575f80fd5b806312e8e2c314620000e057806316f43dd414620000f957806319ac74bd1462000110578063476343ee1462000140578063715018a6146200014a5780638da5cb5b1462000154575b5f80fd5b620000f7620000f1366004620007ce565b62000229565b005b6002545b6040519081526020015b60405180910390f35b620001276200012136600462000802565b620002bd565b6040516001600160a01b03909116815260200162000107565b620000f7620002f2565b620000f76200037d565b5f546001600160a01b031662000127565b620000f7620001763660046200082d565b62000394565b620001936200018d3660046200084e565b62000435565b60405162000107919062000871565b62000127620001b3366004620007ce565b620004aa565b62000127620001ca36600462000964565b620004d3565b620000fd60015481565b600454600554600654600754620001f19392919084565b60408051948552602085019390935291830152606082015260800162000107565b620000f7620002233660046200084e565b62000692565b62000233620006d5565b600a811115620002825760405162461bcd60e51b81526020600482015260156024820152744665652063616e6e6f74206578636565642031302560581b60448201526064015b60405180910390fd5b60018190556040518181527f72b05fd7e6e407beabebd17ae121166880efdc19a2a9b08063eafc0c001e470a9060200160405180910390a150565b6003602052815f5260405f208181548110620002d7575f80fd5b5f918252602090912001546001600160a01b03169150829050565b620002fc620006d5565b4780620003425760405162461bcd60e51b81526020600482015260136024820152724e6f206665657320746f20776974686472617760681b604482015260640162000279565b5f80546040516001600160a01b039091169183156108fc02918491818181858888f1935050505015801562000379573d5f803e3d5ffd5b5050565b62000387620006d5565b620003925f62000703565b565b6200039f3362000752565b620003e55760405162461bcd60e51b815260206004820152601560248201527421b0b63632b9103737ba10309031b0b6b830b4b3b760591b604482015260640162000279565b8160046001015f828254620003fb919062000a2f565b909155505060068054905f620004118362000a4b565b91905055508060046003015f8282546200042c919062000a2f565b90915550505050565b6001600160a01b0381165f908152600360209081526040918290208054835181840281018401909452808452606093928301828280156200049e57602002820191905f5260205f20905b81546001600160a01b031681526001909101906020018083116200047f575b50505050509050919050565b60028181548110620004ba575f80fd5b5f918252602090912001546001600160a01b0316905081565b5f808711620005185760405162461bcd60e51b815260206004820152601060248201526f0476f616c206d757374206265203e20360841b604482015260640162000279565b428611620005695760405162461bcd60e51b815260206004820152601a60248201527f446561646c696e65206d75737420626520696e20667574757265000000000000604482015260640162000279565b5f338888600154868a8a8a6040516200058290620007c0565b6200059598979695949392919062000aab565b604051809103905ff080158015620005af573d5f803e3d5ffd5b506002805460018181019092557f405787fa12a823e0f2b7631cc41b3ba8828b3321ca811111fa75cd3aa3bb5ace0180546001600160a01b0384166001600160a01b03199182168117909255335f90815260036020908152604082208054958601815582528120909301805490911690911790556004805492945084935090620006398362000a4b565b9190505550336001600160a01b03167fbe12cd61db77adb20e095dd401ab22a9dbfa8f24609e60d43a7b365bc88eb610838a8a8a6040516200067f949392919062000b23565b60405180910390a2509695505050505050565b6200069c620006d5565b6001600160a01b038116620006c757604051631e4fbdf760e01b81525f600482015260240162000279565b620006d28162000703565b50565b5f546001600160a01b03163314620003925760405163118cdaa760e01b815233600482015260240162000279565b5f80546001600160a01b038381166001600160a01b0319831681178455604051919092169283917f8be0079c531659141344cd1fd0a4f28419497f9722a3daafe3b4186f6b6457e09190a35050565b5f805b600254811015620007b857826001600160a01b03166002828154811062000780576200078062000b5b565b5f918252602090912001546001600160a01b031603620007a35750600192915050565b80620007af8162000a4b565b91505062000755565b505f92915050565b6128688062000b7083390190565b5f60208284031215620007df575f80fd5b5035919050565b80356001600160a01b0381168114620007fd575f80fd5b919050565b5f806040838503121562000814575f80fd5b6200081f83620007e6565b946020939093013593505050565b5f80604083850312156200083f575f80fd5b50508035926020909101359150565b5f602082840312156200085f575f80fd5b6200086a82620007e6565b9392505050565b602080825282518282018190525f9190848201906040850190845b81811015620008b35783516001600160a01b0316835292840192918401916001016200088c565b50909695505050505050565b634e487b7160e01b5f52604160045260245ffd5b5f82601f830112620008e3575f80fd5b813567ffffffffffffffff80821115620009015762000901620008bf565b604051601f8301601f19908116603f011681019082821181831017156200092c576200092c620008bf565b8160405283815286602085880101111562000945575f80fd5b836020870160208301375f602085830101528094505050505092915050565b5f805f805f8060c087890312156200097a575f80fd5b8635955060208701359450604087013567ffffffffffffffff80821115620009a0575f80fd5b620009ae8a838b01620008d3565b95506060890135915080821115620009c4575f80fd5b620009d28a838b01620008d3565b94506080890135915080821115620009e8575f80fd5b50620009f789828a01620008d3565b92505060a0870135801515811462000a0d575f80fd5b809150509295509295509295565b634e487b7160e01b5f52601160045260245ffd5b8082018082111562000a455762000a4562000a1b565b92915050565b5f6001820162000a5f5762000a5f62000a1b565b5060010190565b5f81518084525f5b8181101562000a8c5760208185018101518683018201520162000a6e565b505f602082860101526020601f19601f83011685010191505092915050565b5f61010060018060a01b038b16835289602084015288604084015287606084015286151560808401528060a084015262000ae88184018762000a66565b905082810360c084015262000afe818662000a66565b905082810360e084015262000b14818562000a66565b9b9a5050505050505050505050565b60018060a01b0385168152836020820152826040820152608060608201525f62000b51608083018462000a66565b9695505050505050565b634e487b7160e01b5f52603260045260245ffdfe608060405234801562000010575f80fd5b506040516200286838038062002868833981016040819052620000339162000194565b60015f55600680546001600160a01b0319166001600160a01b038a1617905560078790556008869055600a859055600b805460ff1916851515179055600c6200007d8482620002ed565b50600d6200008c8382620002ed565b50600e6200009b8282620002ed565b505050505050505050620003b5565b80516001600160a01b0381168114620000c1575f80fd5b919050565b80518015158114620000c1575f80fd5b634e487b7160e01b5f52604160045260245ffd5b5f82601f830112620000fa575f80fd5b81516001600160401b0380821115620001175762000117620000d6565b604051601f8301601f19908116603f01168101908282118183101715620001425762000142620000d6565b816040528381526020925086838588010111156200015e575f80fd5b5f91505b8382101562000181578582018301518183018401529082019062000162565b5f93810190920192909252949350505050565b5f805f805f805f80610100898b031215620001ad575f80fd5b620001b889620000aa565b9750602089015196506040890151955060608901519450620001dd60808a01620000c6565b60a08a01519094506001600160401b0380821115620001fa575f80fd5b620002088c838d01620000ea565b945060c08b01519150808211156200021e575f80fd5b6200022c8c838d01620000ea565b935060e08b015191508082111562000242575f80fd5b50620002518b828c01620000ea565b9150509295985092959890939650565b600181811c908216806200027657607f821691505b6020821081036200029557634e487b7160e01b5f52602260045260245ffd5b50919050565b601f821115620002e8575f81815260208120601f850160051c81016020861015620002c35750805b601f850160051c820191505b81811015620002e457828155600101620002cf565b5050505b505050565b81516001600160401b03811115620003095762000309620000d6565b62000321816200031a845462000261565b846200029b565b602080601f83116001811462000357575f84156200033f5750858301515b5f19600386901b1c1916600185901b178555620002e4565b5f85815260208120601f198616915b82811015620003875788860151825594840194600190910190840162000366565b5085821015620003a557878501515f19600388901b60f8161c191681555b5050505050600190811b01905550565b6124a580620003c35f395ff3fe608060405260043610610220575f3560e01c80634a79d50c1161011e578063ac307fcf116100a8578063c5c4744c1161006d578063c5c4744c14610845578063cdd78cfc1461085a578063dbaf21451461086f578063dcef567814610883578063f59bdf85146108a2575f80fd5b8063ac307fcf146107d7578063b5545a3c146107f6578063b88a802f1461080a578063b90497e01461081e578063c1cbbca714610832575f80fd5b806377071911116100ee578063770719111461073a5780637b62ef981461074f57806394abb8cd1461078557806395b3a81e14610799578063aa55efed146107b8575f80fd5b80634a79d50c146106dc5780634e69d560146106fd578063530449ce146107115780637284e41614610726575f80fd5b806337f38652116101aa578063401938831161016f578063401938831461064e578063428cc6f01461066357806342e94c901461067c5780634623c81e146106a757806349d50693146106bd575f80fd5b806337f38652146105b157806338263c55146105dc578063389b7533146105f15780633c6f26d1146106105780633cb5d1001461062f575f80fd5b806324600fc3116101f057806324600fc31461051e578063253da8bd1461053457806329dcb0cf146105525780632c690ac514610567578063350e85fa14610586575f80fd5b806302d05d3f14610457578063039af9eb1461049357806309eef43e146104c25780630cd2057814610500575f80fd5b36610453575f34116102695760405162461bcd60e51b815260206004820152600d60248201526c09aeae6e840e6cadcc8408aa89609b1b60448201526064015b60405180910390fd5b6014546102d65760405162461bcd60e51b815260206004820152603560248201527f4e6f20746965727320617661696c61626c65202d2075736520636f6e747269626044820152740eae8ca505240eed2e8d040e8d2cae440d2dcc8caf605b1b6064820152608401610260565b5f80601482815481106102eb576102eb611ed9565b905f5260205f2090600402019050805f015434101561031c5760405162461bcd60e51b815260040161026090611eed565b80600201548160030154106103435760405162461bcd60e51b815260040161026090611f24565b335f908152600f6020526040812054900361039a57601080546001810182555f919091527f1b6847dc741a1b0cd08d278845f9d819d87b734759afb55fe2de5cb82a9ae6720180546001600160a01b031916331790555b335f908152600f6020526040812080543492906103b8908490611f5e565b925050819055503460095f8282546103d09190611f5e565b9091555050335f908152601560205260408120839055600382018054916103f683611f77565b91905055506007546009541061041657600b805461ff0019166101001790555b604080513481526020810184905233917ffa35a310d7113dddce1c275da946348e9aaebf9050b00b372033c4d84b0bd6eb910160405180910390a2005b5f80fd5b348015610462575f80fd5b50600654610476906001600160a01b031681565b6040516001600160a01b0390911681526020015b60405180910390f35b34801561049e575f80fd5b506104b26104ad366004611f8f565b6108b7565b60405161048a9493929190611fe9565b3480156104cd575f80fd5b506104f06104dc36600461202f565b60016020525f908152604090205460ff1681565b604051901515815260200161048a565b34801561050b575f80fd5b50600b546104f090610100900460ff1681565b348015610529575f80fd5b50610532610977565b005b34801561053f575f80fd5b506010545b60405190815260200161048a565b34801561055d575f80fd5b5061054460085481565b348015610572575f80fd5b50610532610581366004612063565b610c15565b348015610591575f80fd5b506105446105a036600461202f565b60136020525f908152604090205481565b3480156105bc575f80fd5b506105446105cb36600461202f565b60156020525f908152604090205481565b3480156105e7575f80fd5b5061054460055481565b3480156105fc575f80fd5b5061053261060b366004611f8f565b610d54565b34801561061b575f80fd5b5061053261062a36600461202f565b610efe565b34801561063a575f80fd5b50610476610649366004611f8f565b611108565b348015610659575f80fd5b5061054460075481565b34801561066e575f80fd5b50600b546104f09060ff1681565b348015610687575f80fd5b5061054461069636600461202f565b600f6020525f908152604090205481565b3480156106b2575f80fd5b506105446202a30081565b3480156106c8575f80fd5b506105326106d736600461212d565b611130565b3480156106e7575f80fd5b506106f061126f565b60405161048a9190612164565b348015610708575f80fd5b506106f06112fb565b34801561071c575f80fd5b5061054460025481565b348015610731575f80fd5b506106f061138b565b348015610745575f80fd5b5061054460035481565b34801561075a575f80fd5b50610544610769366004612176565b601160209081525f928352604080842090915290825290205481565b348015610790575f80fd5b50610544603381565b3480156107a4575f80fd5b506105326107b33660046121a7565b611398565b3480156107c3575f80fd5b506105326107d2366004611f8f565b61169d565b3480156107e2575f80fd5b50600b546104f09062010000900460ff1681565b348015610801575f80fd5b506105326117f8565b348015610815575f80fd5b506105326119b8565b348015610829575f80fd5b506106f0611afd565b610532610840366004611f8f565b611b0a565b348015610850575f80fd5b5061054460095481565b348015610865575f80fd5b50610544600a5481565b34801561087a575f80fd5b50610532611d21565b34801561088e575f80fd5b5061047661089d3660046121d7565b611e7d565b3480156108ad575f80fd5b5061054460045481565b601481815481106108c6575f80fd5b5f91825260209091206004909102018054600182018054919350906108ea906121ff565b80601f0160208091040260200160405190810160405280929190818152602001828054610916906121ff565b80156109615780601f1061093857610100808354040283529160200191610961565b820191905f5260205f20905b81548152906001019060200180831161094457829003601f168201915b5050505050908060020154908060030154905084565b6006546001600160a01b031633146109a15760405162461bcd60e51b815260040161026090612237565b6008544210156109c35760405162461bcd60e51b81526004016102609061227e565b6109cb611eb1565b600b5462010000900460ff1615610a2e5760405162461bcd60e51b815260206004820152602160248201527f46756e6473206861766520616c7265616479206265656e2077697468647261776044820152603760f91b6064820152608401610260565b5f60045411610a7f5760405162461bcd60e51b815260206004820152601860248201527f5769746864726177616c206e6f742072657175657374656400000000000000006044820152606401610260565b6202a300600454610a909190611f5e565b421015610adf5760405162461bcd60e51b815260206004820152601c60248201527f54696d65206c6f636b20706572696f64206e6f7420656c6170736564000000006044820152606401610260565b600b5460ff1680610af75750600b54610100900460ff165b15610bae575f6064600a5447610b0d91906122b5565b610b1791906122cc565b90505f610b2482476122eb565b6006546040519192506001600160a01b03169082156108fc029083905f818181858888f19350505050158015610b5c573d5f803e3d5ffd5b50600b805462ff000019166201000017905560408051828152602081018490527fd66662c0ded9e58fd31d5e44944bcfd07ffc15e6927ecc1382e7941cb7bd24c4910160405180910390a15050610c0a565b60405162461bcd60e51b815260206004820152602b60248201527f43616d706169676e206661696c656420616e64206973206e6f7420666c65786960448201526a626c652066756e64696e6760a81b6064820152608401610260565b610c1360015f55565b565b6006546001600160a01b03163314610c3f5760405162461bcd60e51b815260040161026090612237565b6008544210610c605760405162461bcd60e51b8152600401610260906122fe565b60408051608081018252848152602081018481529181018390525f60608201819052601480546001810182559152815160049091027fce6d7b5282bd9a3661ae061feed1dbda4e52ab073b1f9285be6e155d9c38d4ec81019182559251919290917fce6d7b5282bd9a3661ae061feed1dbda4e52ab073b1f9285be6e155d9c38d4ed90910190610cf09082612378565b5060408201516002820155606090910151600390910155601454610d16906001906122eb565b7f73f2c5150dd3bafcdfcfd66cdd6938bc381635e48cebe16c6d424dfcf68fe8548484604051610d47929190612434565b60405180910390a2505050565b6006546001600160a01b03163314610d7e5760405162461bcd60e51b815260040161026090612237565b6008544210610d9f5760405162461bcd60e51b8152600401610260906122fe565b5f60055411610df05760405162461bcd60e51b815260206004820152601760248201527f457874656e73696f6e206e6f74207265717565737465640000000000000000006044820152606401610260565b6202a300600554610e019190611f5e565b421015610e505760405162461bcd60e51b815260206004820152601c60248201527f54696d65206c6f636b20706572696f64206e6f7420656c6170736564000000006044820152606401610260565b60088190556040518181527f16d806232f153f787bcf04afdd7d4a80d09712d215b0344d490f6b352eff31249060200160405180910390a15f600281905560058190555b601054811015610efa575f60015f60108481548110610eb557610eb5611ed9565b5f918252602080832091909101546001600160a01b031683528201929092526040019020805460ff191691151591909117905580610ef281611f77565b915050610e94565b5050565b600854421015610f205760405162461bcd60e51b81526004016102609061227e565b610f28611eb1565b600b54610100900460ff16158015610f435750600b5460ff16155b610f865760405162461bcd60e51b8152602060048201526014602482015273526566756e64206e6f7420617661696c61626c6560601b6044820152606401610260565b6001600160a01b0381165f908152601160209081526040808320338452909152902054610ff15760405162461bcd60e51b8152602060048201526019602482015278139bc818dbdb9d1c9a589d5d1a5bdb881d1bc81c99599d5b99603a1b6044820152606401610260565b6001600160a01b0381165f818152601160209081526040808320338085529252808320805490849055905163a9059cbb60e01b8152600481019290925260248201819052929063a9059cbb906044016020604051808303815f875af115801561105c573d5f803e3d5ffd5b505050506040513d601f19601f820116820180604052508101906110809190612454565b9050806110c55760405162461bcd60e51b8152602060048201526013602482015272151bdad95b881c99599d5b990819985a5b1959606a1b6044820152606401610260565b60405182815233907f358fe4192934d3bf28ae181feda1f4bd08ca67f5e2fad55582cce5eb67304ae99060200160405180910390a2505061110560015f55565b50565b60108181548110611117575f80fd5b5f918252602090912001546001600160a01b0316905081565b335f908152600f602052604090205461118b5760405162461bcd60e51b815260206004820152601a60248201527f4f6e6c7920636f6e7472696275746f72732063616e20766f74650000000000006044820152606401610260565b335f9081526001602052604090205460ff16156111da5760405162461bcd60e51b815260206004820152600d60248201526c105b1c9958591e481d9bdd1959609a1b6044820152606401610260565b81156111f55760028054905f6111ef83611f77565b91905055505b80156112105760038054905f61120a83611f77565b91905055505b335f81815260016020818152604092839020805460ff191690921790915581518515158152841515918101919091527f4693a7da7ae0e5a6c9258801888900c59f0940a6c4b8a82c86b6b3ae7ac2b44391015b60405180910390a25050565b600c805461127c906121ff565b80601f01602080910402602001604051908101604052809291908181526020018280546112a8906121ff565b80156112f35780601f106112ca576101008083540402835291602001916112f3565b820191905f5260205f20905b8154815290600101906020018083116112d657829003601f168201915b505050505081565b6060600854421015611328575060408051808201909152600681526541637469766560d01b602082015290565b600b54610100900460ff16806113405750600b5460ff165b1561136a575060408051808201909152600a81526914dd58d8d95cdcd99d5b60b21b602082015290565b5060408051808201909152600681526511985a5b195960d21b602082015290565b600d805461127c906121ff565b60085442106113b95760405162461bcd60e51b8152600401610260906122fe565b5f82116114085760405162461bcd60e51b815260206004820181905260248201527f416d6f756e74206d7573742062652067726561746572207468616e207a65726f6044820152606401610260565b6040516323b872dd60e01b8152336004820152306024820152604481018390525f906001600160a01b038516906323b872dd906064016020604051808303815f875af115801561145a573d5f803e3d5ffd5b505050506040513d601f19601f8201168201806040525081019061147e9190612454565b9050806114c55760405162461bcd60e51b8152602060048201526015602482015274151bdad95b881d1c985b9cd9995c8819985a5b1959605a1b6044820152606401610260565b6001600160a01b0384165f9081526011602090815260408083203384529091528120549003611526576001600160a01b0384165f9081526012602090815260408220805460018101825590835291200180546001600160a01b031916331790555b6001600160a01b0384165f90815260116020908152604080832033845290915281208054859290611558908490611f5e565b90915550506001600160a01b0384165f9081526013602052604081208054859290611584908490611f5e565b909155505060145482106115c95760405162461bcd60e51b815260206004820152600c60248201526b24b73b30b634b2103a34b2b960a11b6044820152606401610260565b5f601483815481106115dd576115dd611ed9565b905f5260205f2090600402019050805f015484101561160e5760405162461bcd60e51b815260040161026090611eed565b80600201548160030154106116355760405162461bcd60e51b815260040161026090611f24565b335f9081526015602052604081208490556003820180549161165683611f77565b9091555050604080518581526020810185905233917ffa35a310d7113dddce1c275da946348e9aaebf9050b00b372033c4d84b0bd6eb910160405180910390a25050505050565b6006546001600160a01b031633146116c75760405162461bcd60e51b815260040161026090612237565b60085442106116e85760405162461bcd60e51b8152600401610260906122fe565b60085481116117495760405162461bcd60e51b815260206004820152602760248201527f4e657720646561646c696e65206d757374206265206c61746572207468616e2060448201526618dd5c9c995b9d60ca1b6064820152608401610260565b6010546002546033919061175e9060646122b5565b61176891906122cc565b10156117b65760405162461bcd60e51b815260206004820152601e60248201527f4e6f7420656e6f75676820766f74657320666f7220657874656e73696f6e00006044820152606401610260565b42600581905560408051918252602082018390527f716353ecd9ce9e0f96eff3234e561ab110bd9d59740cb745622af9031d4f28b2910160405180910390a150565b60085442101561181a5760405162461bcd60e51b81526004016102609061227e565b611822611eb1565b600b54610100900460ff1615801561183d5750600b5460ff16155b6118805760405162461bcd60e51b8152602060048201526014602482015273526566756e64206e6f7420617661696c61626c6560601b6044820152606401610260565b335f908152600f60205260409020546118d75760405162461bcd60e51b8152602060048201526019602482015278139bc818dbdb9d1c9a589d5d1a5bdb881d1bc81c99599d5b99603a1b6044820152606401610260565b335f818152600f6020526040808220805490839055905190929083908381818185875af1925050503d805f8114611929576040519150601f19603f3d011682016040523d82523d5f602084013e61192e565b606091505b50509050806119785760405162461bcd60e51b81526020600482015260166024820152751499599d5b99081d1c985b9cd9995c8819985a5b195960521b6044820152606401610260565b60405182815233907f358fe4192934d3bf28ae181feda1f4bd08ca67f5e2fad55582cce5eb67304ae99060200160405180910390a25050610c1360015f55565b600b54610100900460ff16806119d05750600b5460ff165b611a165760405162461bcd60e51b815260206004820152601760248201527610d85b5c185a59db881b9bdd081cdd58d8d95cdcd99d5b604a1b6044820152606401610260565b335f908152600f6020526040902054611a685760405162461bcd60e51b81526020600482015260146024820152734e6f20636f6e747269627574696f6e206d61646560601b6044820152606401610260565b335f9081526015602052604090205480151580611a86575060145415155b611ac55760405162461bcd60e51b815260206004820152601060248201526f139bc81d1a595c88185cdcda59db995960821b6044820152606401610260565b60405181815233907f106f923f993c2149d49b4255ff723acafa1f2d94393f561d3eda32ae348f72419060200160405180910390a250565b600e805461127c906121ff565b6008544210611b2b5760405162461bcd60e51b8152600401610260906122fe565b5f3411611b6a5760405162461bcd60e51b815260206004820152600d60248201526c09aeae6e840e6cadcc8408aa89609b1b6044820152606401610260565b6014548110611baa5760405162461bcd60e51b815260206004820152600c60248201526b24b73b30b634b2103a34b2b960a11b6044820152606401610260565b5f60148281548110611bbe57611bbe611ed9565b905f5260205f2090600402019050805f0154341015611bef5760405162461bcd60e51b815260040161026090611eed565b8060020154816003015410611c165760405162461bcd60e51b815260040161026090611f24565b335f908152600f60205260408120549003611c6d57601080546001810182555f919091527f1b6847dc741a1b0cd08d278845f9d819d87b734759afb55fe2de5cb82a9ae6720180546001600160a01b031916331790555b335f908152600f602052604081208054349290611c8b908490611f5e565b925050819055503460095f828254611ca39190611f5e565b9091555050335f90815260156020526040812083905560038201805491611cc983611f77565b919050555060075460095410611ce957600b805461ff0019166101001790555b604080513481526020810184905233917ffa35a310d7113dddce1c275da946348e9aaebf9050b00b372033c4d84b0bd6eb9101611263565b6006546001600160a01b03163314611d4b5760405162461bcd60e51b815260040161026090612237565b600854421015611d6d5760405162461bcd60e51b81526004016102609061227e565b600b5460ff1680611d855750600b54610100900460ff165b611dcb5760405162461bcd60e51b815260206004820152601760248201527610d85b5c185a59db881b9bdd081cdd58d8d95cdcd99d5b604a1b6044820152606401610260565b60105460035460339190611de09060646122b5565b611dea91906122cc565b1015611e425760405162461bcd60e51b815260206004820152602160248201527f4e6f7420656e6f75676820766f74657320666f722066756e642072656c6561736044820152606560f81b6064820152608401610260565b4260048190556040519081527faf619daa033514f6c299197d29548ccd9276a1b55ef717fb80adf495925dd5109060200160405180910390a1565b6012602052815f5260405f208181548110611e96575f80fd5b5f918252602090912001546001600160a01b03169150829050565b60025f5403611ed357604051633ee5aeb560e01b815260040160405180910390fd5b60025f55565b634e487b7160e01b5f52603260045260245ffd5b60208082526019908201527f416d6f756e742062656c6f772074696572206d696e696d756d00000000000000604082015260600190565b6020808252600c908201526b151a595c881a5cc8199d5b1b60a21b604082015260600190565b634e487b7160e01b5f52601160045260245ffd5b80820180821115611f7157611f71611f4a565b92915050565b5f60018201611f8857611f88611f4a565b5060010190565b5f60208284031215611f9f575f80fd5b5035919050565b5f81518084525f5b81811015611fca57602081850181015186830182015201611fae565b505f602082860101526020601f19601f83011685010191505092915050565b848152608060208201525f6120016080830186611fa6565b6040830194909452506060015292915050565b80356001600160a01b038116811461202a575f80fd5b919050565b5f6020828403121561203f575f80fd5b61204882612014565b9392505050565b634e487b7160e01b5f52604160045260245ffd5b5f805f60608486031215612075575f80fd5b83359250602084013567ffffffffffffffff80821115612093575f80fd5b818601915086601f8301126120a6575f80fd5b8135818111156120b8576120b861204f565b604051601f8201601f19908116603f011681019083821181831017156120e0576120e061204f565b816040528281528960208487010111156120f8575f80fd5b826020860160208301375f602084830101528096505050505050604084013590509250925092565b8015158114611105575f80fd5b5f806040838503121561213e575f80fd5b823561214981612120565b9150602083013561215981612120565b809150509250929050565b602081525f6120486020830184611fa6565b5f8060408385031215612187575f80fd5b61219083612014565b915061219e60208401612014565b90509250929050565b5f805f606084860312156121b9575f80fd5b6121c284612014565b95602085013595506040909401359392505050565b5f80604083850312156121e8575f80fd5b6121f183612014565b946020939093013593505050565b600181811c9082168061221357607f821691505b60208210810361223157634e487b7160e01b5f52602260045260245ffd5b50919050565b60208082526027908201527f4f6e6c79207468652063726561746f722063616e2063616c6c207468697320666040820152663ab731ba34b7b760c91b606082015260800190565b60208082526018908201527f43616d706169676e206973207374696c6c206163746976650000000000000000604082015260600190565b8082028115828204841417611f7157611f71611f4a565b5f826122e657634e487b7160e01b5f52601260045260245ffd5b500490565b81810381811115611f7157611f71611f4a565b60208082526012908201527110d85b5c185a59db881a185cc8195b99195960721b604082015260600190565b601f821115612373575f81815260208120601f850160051c810160208610156123505750805b601f850160051c820191505b8181101561236f5782815560010161235c565b5050505b505050565b815167ffffffffffffffff8111156123925761239261204f565b6123a6816123a084546121ff565b8461232a565b602080601f8311600181146123d9575f84156123c25750858301515b5f19600386901b1c1916600185901b17855561236f565b5f85815260208120601f198616915b82811015612407578886015182559484019460019091019084016123e8565b508582101561242457878501515f19600388901b60f8161c191681555b5050505050600190811b01905550565b828152604060208201525f61244c6040830184611fa6565b949350505050565b5f60208284031215612464575f80fd5b81516120488161212056fea2646970667358221220197291b7863e6a5f44dfa53a06df41561efb924a509876bc8d9624a0378fd9f164736f6c63430008140033a26469706673582212209e13b6662fdaf08f8a573234dbd11d989cb80a2828dcd21dea47a9559c02850164736f6c63430008140033","linkReferences":{}},"methodIdentifiers":{"allCampaigns(uint256)":"a509f4d1","createCampaign(uint256,uint256,string,string,string,bool)":"adf7df9c","getTotalCampaigns()":"16f43dd4","getUserCampaigns(address)":"a1e5084c","owner()":"8da5cb5b","platformFeePercentage()":"cdd78cfc","recordSuccessfulCampaign(uint256,uint256)":"8f66341f","renounceOwnership()":"715018a6","setPlatformFee(uint256)":"12e8e2c3","stats()":"d80528ae","transferOwnership(address)":"f2fde38b","userCampaigns(address,uint256)":"19ac74bd","withdrawFees()":"476343ee"},"id":1}